:1000000000308A003D2A0000FF00030E8301A1009A
:100010000A08A0008A010408A2007708A300780853
:10002000A4007908A5007A08A6007B08A70083131E
:1000300083128C308400001C1F280C1832282208E0
:1000400084002308F7002408F8002508F900260892
:10005000FA002708FB0020088A00210E8300FF0E0B
:100060007F0E09008A110A12C028C9308F00BF30E4
:100070008E000034F801F901F701FA017108031D3F
:100080004428700803195E281030F2000310EE0DAA
:10009000EF0DF70DFA0D71087A02031D5128700853
:1000A0007702031C5A287008F702031CFA03710830
:1000B000FA020314F80DF90DF20B462800346B0810
:1000C000F8016A02031867286A08F7007328F70125
:1000D0000830EC00EA0DF70D6B0877020318F70003
:1000E000F80DEC0B6A2800346B08003A03199428C9
:1000F000013A03199828033A03199C28013A031975
:10010000A028073A0319A428013A0319A828033A9A
:100110000319AC28013A0319B0280F3A0319B4287F
:10012000013A0319B828BC283F30F800BF28BF287F
:100130000630F800BF28BF285B30F800BF28BF2872
:100140004F30F800BF28BF286630F800BF28BF280E
:100150006D30F800BF28BF287D30F800BF28BF28C9
:100160002730F800BF28BF287F30F800BF28BF28FD
:100170006F30F800BF28BF280030F800BF280034D7
:1001800035201F15B8011E08B7003708B800B701A1
:1001900083161E088312B7043808E9003708E80000
:1001A000D3015308063C031C09290310530D413E9B
:1001B000F800FA010318FA0A7A08EB000130530735
:1001C000F7000310F70D7708413E84008313840A7B
:1001D0000008FA0084030008ED0078088400831307
:1001E0006B188317840A7A08800084036D088000E6
:1001F0000310530D413E84008313840A0008FA0063
:1002000084030008D1077A0803187A0FD207D30AAB
:10021000D128D3016908D0006808CF004F08D10762
:1002200050080318500FD207D20CD10CD20CD10CAD
:10023000D20CD10C1F30D2055208B8005108B700BB
:10024000D201D1013808E9003708E800B50A0319DE
:10025000B60A36083202031C5029031D332931081F
:1002600035020318502965086902031C4129031D42
:100270003D2968086402031841296908E5006808F7
:10028000E40069086702031C4F29031D4B29660817
:10029000680203184F296908E7006808E600832907
:1002A00067086502031C7C29031D5A29640866023D
:1002B00003187C2966086407EA006508EB006708F4
:1002C0000318670FEB076A0DEC006B0DED00EC0DEA
:1002D000ED0DEC0DED0DF830EC056D08EF006C0840
:1002E000EE00F1010E30F0003A2028307807AF0020
:1002F0007908B0000318B00AE501E401E701FF3016
:10030000E600B601B5013708E800B30A0319B40ADC
:1003100030083802031CF229031D922937082F02E6
:100320000318F2293B08BA003C08BB006808BC006F
:100330003A083B02031CF1293B083C020318F1294F
:10034000BD08031DF129EA013C30E9003208EC0048
:100350003108EB001030ED00F701FA01EA0CE90C6E
:10036000031CB8296B08F7070318FA0A6C08FA0788
:10037000FA0CF70CF90CF80CED0BAE297908EA0031
:100380007808E9007908EF007808EE003408F100F9
:100390003308F0003A207808B9003908E900690804
:1003A000633C0318D7294030C000BF00ED2969081D
:1003B000EA000A30EB005F207808EA00EB007420C6
:1003C0007808BF006908EA000A30EB005F20770870
:1003D000EA00EB0074207808C000B401B3010130DA
:1003E000BD00F329BD01FF300C1EF4299900FF3038
:1003F0000C1EF82999003808FA010C1EFD299900F5
:1004000037080C1E012A99003008FA010C1E062A32
:1004100099002F080C1E0A2A990000300C1E0E2A83
:10042000990039080C1E122A990039080C1E162A48
:1004300099003E0B232A3F0888008316891009146F
:100440008312BE012B2A40088800831689140910E4
:1004500001308312BE0030083802031C372A031D06
:10046000352A37082F020318372A8817382A8813A5
:100470000C100C108A110A121F28840183131F30DC
:1004800083050A3083169900A630980090308312B5
:10049000980083161F149F141F159F1107309C008E
:1004A0008312A901AA01FF30AF00B001B301B4016A
:1004B000B501B601B701B801B901BA01BB01BC0170
:1004C000BD010130BE00BF01C001C101C201C301B5
:1004D000C401C501C601C701C801C901CA01CB01D8
:1004E000CC01CD01CE01CF01D001D101D201D30188
:1004F000D401D501D601D701D801D901DA01DB0138
:10050000DC01DD01DE01DF01E001E101E201E301E7
:10051000E401E501FF30E600E7018316880183125C
:1005200088011F1483161F1383129F131F1783162E
:100530009F179F111F119F101F10831210149010EE
:1005400083160C1483128B170B17901210120130A4
:0C055000B2006830B1003520AC2A630016
:02400E003A3F37
:00000001FF
;PIC16F877A
