:1000000000308A0049280000FF00030E8301A10090
:100010000A08A0008A010408A2007708A300780853
:10002000A4007908A5007A08A6007B08A70083131E
:1000300083128C308400001C1F280C1836288B1E5D
:1000400023280B193928220884002308F7002408E4
:10005000F8002508F9002608FA002708FB00200808
:100060008A00210E8300FF0E7F0E09008A110A12FA
:1000700043288A110A123C280B11643081000B11AD
:100080008A110A1223280C1088090C108A110A12EE
:100090002328840183131F30830583161F149F14A4
:1000A0001F159F1107309C008312A8018316880139
:1000B0008312880183160108C03907388100643033
:1000C000831281008B16B530900083160C148312B6
:0600D0008B176928630094
:02400E003A3F37
:00000001FF
;PIC16F877A
